{
  "_format": "hh-sol-artifact-1",
  "contractName": "SecureToken",
  "sourceName": "contracts/SecureToken.sol",
  "abi": [
    {
      "inputs": [
        {
          "internalType": "string",
          "name": "name_",
          "type": "string"
        },
        {
          "internalType": "string",
          "name": "symbol_",
          "type": "string"
        },
        {
          "internalType": "uint256",
          "name": "initialSupply_",
          "type": "uint256"
        },
        {
          "internalType": "address",
          "name": "owner_",
          "type": "address"
        }
      ],
      "stateMutability": "nonpayable",
      "type": "constructor"
    },
    {
      "inputs": [
        {
          "internalType": "address",
          "name": "spender",
          "type": "address"
        },
        {
          "internalType": "uint256",
          "name": "allowance",
          "type": "uint256"
        },
        {
          "internalType": "uint256",
          "name": "needed",
          "type": "uint256"
        }
      ],
      "name": "ERC20InsufficientAllowance",
      "type": "error"
    },
    {
      "inputs": [
        {
          "internalType": "address",
          "name": "sender",
          "type": "address"
        },
        {
          "internalType": "uint256",
          "name": "balance",
          "type": "uint256"
        },
        {
          "internalType": "uint256",
          "name": "needed",
          "type": "uint256"
        }
      ],
      "name": "ERC20InsufficientBalance",
      "type": "error"
    },
    {
      "inputs": [
        {
          "internalType": "address",
          "name": "approver",
          "type": "address"
        }
      ],
      "name": "ERC20InvalidApprover",
      "type": "error"
    },
    {
      "inputs": [
        {
          "internalType": "address",
          "name": "receiver",
          "type": "address"
        }
      ],
      "name": "ERC20InvalidReceiver",
      "type": "error"
    },
    {
      "inputs": [
        {
          "internalType": "address",
          "name": "sender",
          "type": "address"
        }
      ],
      "name": "ERC20InvalidSender",
      "type": "error"
    },
    {
      "inputs": [
        {
          "internalType": "address",
          "name": "spender",
          "type": "address"
        }
      ],
      "name": "ERC20InvalidSpender",
      "type": "error"
    },
    {
      "inputs": [],
      "name": "EnforcedPause",
      "type": "error"
    },
    {
      "inputs": [],
      "name": "ExpectedPause",
      "type": "error"
    },
    {
      "inputs": [
        {
          "internalType": "address",
          "name": "owner",
          "type": "address"
        }
      ],
      "name": "OwnableInvalidOwner",
      "type": "error"
    },
    {
      "inputs": [
        {
          "internalType": "address",
          "name": "account",
          "type": "address"
        }
      ],
      "name": "OwnableUnauthorizedAccount",
      "type": "error"
    },
    {
      "anonymous": false,
      "inputs": [
        {
          "indexed": true,
          "internalType": "address",
          "name": "owner",
          "type": "address"
        },
        {
          "indexed": true,
          "internalType": "address",
          "name": "spender",
          "type": "address"
        },
        {
          "indexed": false,
          "internalType": "uint256",
          "name": "value",
          "type": "uint256"
        }
      ],
      "name": "Approval",
      "type": "event"
    },
    {
      "anonymous": false,
      "inputs": [],
      "name": "MintingFinished",
      "type": "event"
    },
    {
      "anonymous": false,
      "inputs": [
        {
          "indexed": true,
          "internalType": "address",
          "name": "previousOwner",
          "type": "address"
        },
        {
          "indexed": true,
          "internalType": "address",
          "name": "newOwner",
          "type": "address"
        }
      ],
      "name": "OwnershipTransferred",
      "type": "event"
    },
    {
      "anonymous": false,
      "inputs": [
        {
          "indexed": false,
          "internalType": "address",
          "name": "account",
          "type": "address"
        }
      ],
      "name": "Paused",
      "type": "event"
    },
    {
      "anonymous": false,
      "inputs": [
        {
          "indexed": true,
          "internalType": "address",
          "name": "from",
          "type": "address"
        },
        {
          "indexed": true,
          "internalType": "address",
          "name": "to",
          "type": "address"
        },
        {
          "indexed": false,
          "internalType": "uint256",
          "name": "value",
          "type": "uint256"
        }
      ],
      "name": "Transfer",
      "type": "event"
    },
    {
      "anonymous": false,
      "inputs": [
        {
          "indexed": false,
          "internalType": "address",
          "name": "account",
          "type": "address"
        }
      ],
      "name": "Unpaused",
      "type": "event"
    },
    {
      "inputs": [
        {
          "internalType": "address",
          "name": "owner",
          "type": "address"
        },
        {
          "internalType": "address",
          "name": "spender",
          "type": "address"
        }
      ],
      "name": "allowance",
      "outputs": [
        {
          "internalType": "uint256",
          "name": "",
          "type": "uint256"
        }
      ],
      "stateMutability": "view",
      "type": "function"
    },
    {
      "inputs": [
        {
          "internalType": "address",
          "name": "spender",
          "type": "address"
        },
        {
          "internalType": "uint256",
          "name": "value",
          "type": "uint256"
        }
      ],
      "name": "approve",
      "outputs": [
        {
          "internalType": "bool",
          "name": "",
          "type": "bool"
        }
      ],
      "stateMutability": "nonpayable",
      "type": "function"
    },
    {
      "inputs": [
        {
          "internalType": "address",
          "name": "account",
          "type": "address"
        }
      ],
      "name": "balanceOf",
      "outputs": [
        {
          "internalType": "uint256",
          "name": "",
          "type": "uint256"
        }
      ],
      "stateMutability": "view",
      "type": "function"
    },
    {
      "inputs": [
        {
          "internalType": "uint256",
          "name": "value",
          "type": "uint256"
        }
      ],
      "name": "burn",
      "outputs": [],
      "stateMutability": "nonpayable",
      "type": "function"
    },
    {
      "inputs": [
        {
          "internalType": "address",
          "name": "account",
          "type": "address"
        },
        {
          "internalType": "uint256",
          "name": "value",
          "type": "uint256"
        }
      ],
      "name": "burnFrom",
      "outputs": [],
      "stateMutability": "nonpayable",
      "type": "function"
    },
    {
      "inputs": [],
      "name": "decimals",
      "outputs": [
        {
          "internalType": "uint8",
          "name": "",
          "type": "uint8"
        }
      ],
      "stateMutability": "view",
      "type": "function"
    },
    {
      "inputs": [],
      "name": "finishMinting",
      "outputs": [],
      "stateMutability": "nonpayable",
      "type": "function"
    },
    {
      "inputs": [
        {
          "internalType": "address",
          "name": "to",
          "type": "address"
        },
        {
          "internalType": "uint256",
          "name": "amount",
          "type": "uint256"
        }
      ],
      "name": "mint",
      "outputs": [],
      "stateMutability": "nonpayable",
      "type": "function"
    },
    {
      "inputs": [],
      "name": "mintingFinished",
      "outputs": [
        {
          "internalType": "bool",
          "name": "",
          "type": "bool"
        }
      ],
      "stateMutability": "view",
      "type": "function"
    },
    {
      "inputs": [],
      "name": "name",
      "outputs": [
        {
          "internalType": "string",
          "name": "",
          "type": "string"
        }
      ],
      "stateMutability": "view",
      "type": "function"
    },
    {
      "inputs": [],
      "name": "owner",
      "outputs": [
        {
          "internalType": "address",
          "name": "",
          "type": "address"
        }
      ],
      "stateMutability": "view",
      "type": "function"
    },
    {
      "inputs": [],
      "name": "pause",
      "outputs": [],
      "stateMutability": "nonpayable",
      "type": "function"
    },
    {
      "inputs": [],
      "name": "paused",
      "outputs": [
        {
          "internalType": "bool",
          "name": "",
          "type": "bool"
        }
      ],
      "stateMutability": "view",
      "type": "function"
    },
    {
      "inputs": [],
      "name": "renounceOwnership",
      "outputs": [],
      "stateMutability": "nonpayable",
      "type": "function"
    },
    {
      "inputs": [],
      "name": "symbol",
      "outputs": [
        {
          "internalType": "string",
          "name": "",
          "type": "string"
        }
      ],
      "stateMutability": "view",
      "type": "function"
    },
    {
      "inputs": [],
      "name": "totalSupply",
      "outputs": [
        {
          "internalType": "uint256",
          "name": "",
          "type": "uint256"
        }
      ],
      "stateMutability": "view",
      "type": "function"
    },
    {
      "inputs": [
        {
          "internalType": "address",
          "name": "to",
          "type": "address"
        },
        {
          "internalType": "uint256",
          "name": "value",
          "type": "uint256"
        }
      ],
      "name": "transfer",
      "outputs": [
        {
          "internalType": "bool",
          "name": "",
          "type": "bool"
        }
      ],
      "stateMutability": "nonpayable",
      "type": "function"
    },
    {
      "inputs": [
        {
          "internalType": "address",
          "name": "from",
          "type": "address"
        },
        {
          "internalType": "address",
          "name": "to",
          "type": "address"
        },
        {
          "internalType": "uint256",
          "name": "value",
          "type": "uint256"
        }
      ],
      "name": "transferFrom",
      "outputs": [
        {
          "internalType": "bool",
          "name": "",
          "type": "bool"
        }
      ],
      "stateMutability": "nonpayable",
      "type": "function"
    },
    {
      "inputs": [
        {
          "internalType": "address",
          "name": "newOwner",
          "type": "address"
        }
      ],
      "name": "transferOwnership",
      "outputs": [],
      "stateMutability": "nonpayable",
      "type": "function"
    },
    {
      "inputs": [],
      "name": "unpause",
      "outputs": [],
      "stateMutability": "nonpayable",
      "type": "function"
    }
  ],
  "bytecode": "0x60806040526005805460ff60a81b191690553480156200001e57600080fd5b5060405162001183380380620011838339810160408190526200004191620003b2565b8084846003620000528382620004d5565b506004620000618282620004d5565b5050506001600160a01b0381166200009457604051631e4fbdf760e01b8152600060048201526024015b60405180910390fd5b6200009f81620000d2565b50620000ac81836200012c565b6001600160a01b0381163314620000c857620000c881620000d2565b50505050620005c9565b600580546001600160a01b03838116610100818102610100600160a81b031985161790945560405193909204169182907f8be0079c531659141344cd1fd0a4f28419497f9722a3daafe3b4186f6b6457e090600090a35050565b6001600160a01b038216620001585760405163ec442f0560e01b8152600060048201526024016200008b565b62000166600083836200016a565b5050565b620001778383836200017c565b505050565b6200018662000193565b62000177838383620001ba565b60055460ff1615620001b85760405163d93c066560e01b815260040160405180910390fd5b565b6001600160a01b038316620001e9578060026000828254620001dd9190620005a1565b909155506200025d9050565b6001600160a01b038316600090815260208190526040902054818110156200023e5760405163391434e360e21b81526001600160a01b038516600482015260248101829052604481018390526064016200008b565b6001600160a01b03841660009081526020819052604090209082900390555b6001600160a01b0382166200027b576002805482900390556200029a565b6001600160a01b03821660009081526020819052604090208054820190555b816001600160a01b0316836001600160a01b03167fddf252ad1be2c89b69c2b068fc378daa952ba7f163c4a11628f55a4df523b3ef83604051620002e091815260200190565b60405180910390a3505050565b634e487b7160e01b600052604160045260246000fd5b600082601f8301126200031557600080fd5b81516001600160401b0380821115620003325762000332620002ed565b604051601f8301601f19908116603f011681019082821181831017156200035d576200035d620002ed565b816040528381526020925086838588010111156200037a57600080fd5b600091505b838210156200039e57858201830151818301840152908201906200037f565b600093810190920192909252949350505050565b60008060008060808587031215620003c957600080fd5b84516001600160401b0380821115620003e157600080fd5b620003ef8883890162000303565b955060208701519150808211156200040657600080fd5b50620004158782880162000303565b60408701516060880151919550935090506001600160a01b03811681146200043c57600080fd5b939692955090935050565b600181811c908216806200045c57607f821691505b6020821081036200047d57634e487b7160e01b600052602260045260246000fd5b50919050565b601f8211156200017757600081815260208120601f850160051c81016020861015620004ac5750805b601f850160051c820191505b81811015620004cd57828155600101620004b8565b505050505050565b81516001600160401b03811115620004f157620004f1620002ed565b620005098162000502845462000447565b8462000483565b602080601f831160018114620005415760008415620005285750858301515b600019600386901b1c1916600185901b178555620004cd565b600085815260208120601f198616915b82811015620005725788860151825594840194600190910190840162000551565b5085821015620005915787850151600019600388901b60f8161c191681555b5050505050600190811b01905550565b80820180821115620005c357634e487b7160e01b600052601160045260246000fd5b92915050565b610baa80620005d96000396000f3fe608060405234801561001057600080fd5b506004361061012c5760003560e01c806370a08231116100ad5780638da5cb5b116100715780638da5cb5b1461024557806395d89b411461026e578063a9059cbb14610276578063dd62ed3e14610289578063f2fde38b146102c257600080fd5b806370a08231146101f1578063715018a61461021a57806379cc6790146102225780637d64bcb4146102355780638456cb591461023d57600080fd5b8063313ce567116100f4578063313ce567146101a75780633f4ba83a146101b657806340c10f19146101c057806342966c68146101d35780635c975abb146101e657600080fd5b806305d2035b1461013157806306fdde031461015a578063095ea7b31461016f57806318160ddd1461018257806323b872dd14610194575b600080fd5b60055461014590600160a81b900460ff1681565b60405190151581526020015b60405180910390f35b6101626102d5565b60405161015191906109db565b61014561017d366004610a45565b610367565b6002545b604051908152602001610151565b6101456101a2366004610a6f565b610381565b60405160128152602001610151565b6101be6103a5565b005b6101be6101ce366004610a45565b6103b7565b6101be6101e1366004610aab565b610422565b60055460ff16610145565b6101866101ff366004610ac4565b6001600160a01b031660009081526020819052604090205490565b6101be61042f565b6101be610230366004610a45565b610441565b6101be610456565b6101be61049c565b60055461010090046001600160a01b03166040516001600160a01b039091168152602001610151565b6101626104ac565b610145610284366004610a45565b6104bb565b610186610297366004610ae6565b6001600160a01b03918216600090815260016020908152604080832093909416825291909152205490565b6101be6102d0366004610ac4565b6104c9565b6060600380546102e490610b19565b80601f016020809104026020016040519081016040528092919081815260200182805461031090610b19565b801561035d5780601f106103325761010080835404028352916020019161035d565b820191906000526020600020905b81548152906001019060200180831161034057829003601f168201915b5050505050905090565b600033610375818585610504565b60019150505b92915050565b60003361038f858285610516565b61039a858585610595565b506001949350505050565b6103ad6105f4565b6103b5610627565b565b6103bf6105f4565b600554600160a81b900460ff16156104145760405162461bcd60e51b8152602060048201526013602482015272135a5b9d1a5b99c81a5cc8199a5b9a5cda1959606a1b60448201526064015b60405180910390fd5b61041e8282610679565b5050565b61042c33826106af565b50565b6104376105f4565b6103b560006106e5565b61044c823383610516565b61041e82826106af565b61045e6105f4565b6005805460ff60a81b1916600160a81b1790556040517fb828d9b5c78095deeeeff2eca2e5d4fe046ce3feb4c99702624a3fd384ad2dbc90600090a1565b6104a46105f4565b6103b561073f565b6060600480546102e490610b19565b600033610375818585610595565b6104d16105f4565b6001600160a01b0381166104fb57604051631e4fbdf760e01b81526000600482015260240161040b565b61042c816106e5565b610511838383600161077c565b505050565b6001600160a01b0383811660009081526001602090815260408083209386168352929052205460001981101561058f578181101561058057604051637dc7a0d960e11b81526001600160a01b0384166004820152602481018290526044810183905260640161040b565b61058f8484848403600061077c565b50505050565b6001600160a01b0383166105bf57604051634b637e8f60e11b81526000600482015260240161040b565b6001600160a01b0382166105e95760405163ec442f0560e01b81526000600482015260240161040b565b610511838383610851565b6005546001600160a01b036101009091041633146103b55760405163118cdaa760e01b815233600482015260240161040b565b61062f61085c565b6005805460ff191690557f5db9ee0a495bf2e6ff9c91a7834c1ba4fdd244a5e8aa4e537bd38aeae4b073aa335b6040516001600160a01b03909116815260200160405180910390a1565b6001600160a01b0382166106a35760405163ec442f0560e01b81526000600482015260240161040b565b61041e60008383610851565b6001600160a01b0382166106d957604051634b637e8f60e11b81526000600482015260240161040b565b61041e82600083610851565b600580546001600160a01b03838116610100818102610100600160a81b031985161790945560405193909204169182907f8be0079c531659141344cd1fd0a4f28419497f9722a3daafe3b4186f6b6457e090600090a35050565b61074761087f565b6005805460ff191660011790557f62e78cea01bee320cd4e420270b5ea74000d11b0c9f74754ebdbfc544b05a25861065c3390565b6001600160a01b0384166107a65760405163e602df0560e01b81526000600482015260240161040b565b6001600160a01b0383166107d057604051634a1406b160e11b81526000600482015260240161040b565b6001600160a01b038085166000908152600160209081526040808320938716835292905220829055801561058f57826001600160a01b0316846001600160a01b03167f8c5be1e5ebec7d5bd14f71427d1e84f3dd0314c0f7b2291e5b200ac8c7c3b9258460405161084391815260200190565b60405180910390a350505050565b6105118383836108a3565b60055460ff166103b557604051638dfc202b60e01b815260040160405180910390fd5b60055460ff16156103b55760405163d93c066560e01b815260040160405180910390fd5b6108ab61087f565b6105118383836001600160a01b0383166108dc5780600260008282546108d19190610b53565b9091555061094e9050565b6001600160a01b0383166000908152602081905260409020548181101561092f5760405163391434e360e21b81526001600160a01b0385166004820152602481018290526044810183905260640161040b565b6001600160a01b03841660009081526020819052604090209082900390555b6001600160a01b03821661096a57600280548290039055610989565b6001600160a01b03821660009081526020819052604090208054820190555b816001600160a01b0316836001600160a01b03167fddf252ad1be2c89b69c2b068fc378daa952ba7f163c4a11628f55a4df523b3ef836040516109ce91815260200190565b60405180910390a3505050565b600060208083528351808285015260005b81811015610a08578581018301518582016040015282016109ec565b506000604082860101526040601f19601f8301168501019250505092915050565b80356001600160a01b0381168114610a4057600080fd5b919050565b60008060408385031215610a5857600080fd5b610a6183610a29565b946020939093013593505050565b600080600060608486031215610a8457600080fd5b610a8d84610a29565b9250610a9b60208501610a29565b9150604084013590509250925092565b600060208284031215610abd57600080fd5b5035919050565b600060208284031215610ad657600080fd5b610adf82610a29565b9392505050565b60008060408385031215610af957600080fd5b610b0283610a29565b9150610b1060208401610a29565b90509250929050565b600181811c90821680610b2d57607f821691505b602082108103610b4d57634e487b7160e01b600052602260045260246000fd5b50919050565b8082018082111561037b57634e487b7160e01b600052601160045260246000fdfea26469706673582212203567b7d5cb9452b005db07dc6ea4306cb4b3dcde5de538864378cb2c352976b864736f6c63430008140033",
  "linkReferences": {},
  "deployedLinkReferences": {}
}