{
  "_format": "hh-sol-artifact-1",
  "contractName": "SecurableToken",
  "sourceName": "contracts/SecurableToken.sol",
  "abi": [
    {
      "inputs": [
        {
          "internalType": "string",
          "name": "_name",
          "type": "string"
        },
        {
          "internalType": "string",
          "name": "_symbol",
          "type": "string"
        },
        {
          "internalType": "uint256",
          "name": "_totalSupply",
          "type": "uint256"
        },
        {
          "internalType": "address",
          "name": "_owner",
          "type": "address"
        },
        {
          "internalType": "bool",
          "name": "_enableMinting",
          "type": "bool"
        },
        {
          "internalType": "bool",
          "name": "_enableMetadataUpdate",
          "type": "bool"
        },
        {
          "internalType": "bool",
          "name": "_enableOwnerControls",
          "type": "bool"
        }
      ],
      "stateMutability": "nonpayable",
      "type": "constructor"
    },
    {
      "anonymous": false,
      "inputs": [
        {
          "indexed": true,
          "internalType": "address",
          "name": "owner",
          "type": "address"
        },
        {
          "indexed": true,
          "internalType": "address",
          "name": "spender",
          "type": "address"
        },
        {
          "indexed": false,
          "internalType": "uint256",
          "name": "value",
          "type": "uint256"
        }
      ],
      "name": "Approval",
      "type": "event"
    },
    {
      "anonymous": false,
      "inputs": [],
      "name": "MetadataUpdateRevoked",
      "type": "event"
    },
    {
      "anonymous": false,
      "inputs": [],
      "name": "MintingRevoked",
      "type": "event"
    },
    {
      "anonymous": false,
      "inputs": [],
      "name": "OwnerControlsRevoked",
      "type": "event"
    },
    {
      "anonymous": false,
      "inputs": [
        {
          "indexed": true,
          "internalType": "address",
          "name": "from",
          "type": "address"
        },
        {
          "indexed": true,
          "internalType": "address",
          "name": "to",
          "type": "address"
        },
        {
          "indexed": false,
          "internalType": "uint256",
          "name": "value",
          "type": "uint256"
        }
      ],
      "name": "Transfer",
      "type": "event"
    },
    {
      "inputs": [
        {
          "internalType": "address",
          "name": "",
          "type": "address"
        },
        {
          "internalType": "address",
          "name": "",
          "type": "address"
        }
      ],
      "name": "allowance",
      "outputs": [
        {
          "internalType": "uint256",
          "name": "",
          "type": "uint256"
        }
      ],
      "stateMutability": "view",
      "type": "function"
    },
    {
      "inputs": [
        {
          "internalType": "address",
          "name": "spender",
          "type": "address"
        },
        {
          "internalType": "uint256",
          "name": "value",
          "type": "uint256"
        }
      ],
      "name": "approve",
      "outputs": [
        {
          "internalType": "bool",
          "name": "",
          "type": "bool"
        }
      ],
      "stateMutability": "nonpayable",
      "type": "function"
    },
    {
      "inputs": [
        {
          "internalType": "address",
          "name": "",
          "type": "address"
        }
      ],
      "name": "balanceOf",
      "outputs": [
        {
          "internalType": "uint256",
          "name": "",
          "type": "uint256"
        }
      ],
      "stateMutability": "view",
      "type": "function"
    },
    {
      "inputs": [],
      "name": "decimals",
      "outputs": [
        {
          "internalType": "uint8",
          "name": "",
          "type": "uint8"
        }
      ],
      "stateMutability": "view",
      "type": "function"
    },
    {
      "inputs": [],
      "name": "isMetadataUpdateRevoked",
      "outputs": [
        {
          "internalType": "bool",
          "name": "",
          "type": "bool"
        }
      ],
      "stateMutability": "view",
      "type": "function"
    },
    {
      "inputs": [],
      "name": "isMintingRevoked",
      "outputs": [
        {
          "internalType": "bool",
          "name": "",
          "type": "bool"
        }
      ],
      "stateMutability": "view",
      "type": "function"
    },
    {
      "inputs": [],
      "name": "isOwnerControlRevoked",
      "outputs": [
        {
          "internalType": "bool",
          "name": "",
          "type": "bool"
        }
      ],
      "stateMutability": "view",
      "type": "function"
    },
    {
      "inputs": [],
      "name": "metadataUpdateEnabled",
      "outputs": [
        {
          "internalType": "bool",
          "name": "",
          "type": "bool"
        }
      ],
      "stateMutability": "view",
      "type": "function"
    },
    {
      "inputs": [
        {
          "internalType": "address",
          "name": "to",
          "type": "address"
        },
        {
          "internalType": "uint256",
          "name": "amount",
          "type": "uint256"
        }
      ],
      "name": "mint",
      "outputs": [],
      "stateMutability": "nonpayable",
      "type": "function"
    },
    {
      "inputs": [],
      "name": "mintingEnabled",
      "outputs": [
        {
          "internalType": "bool",
          "name": "",
          "type": "bool"
        }
      ],
      "stateMutability": "view",
      "type": "function"
    },
    {
      "inputs": [],
      "name": "name",
      "outputs": [
        {
          "internalType": "string",
          "name": "",
          "type": "string"
        }
      ],
      "stateMutability": "view",
      "type": "function"
    },
    {
      "inputs": [],
      "name": "owner",
      "outputs": [
        {
          "internalType": "address",
          "name": "",
          "type": "address"
        }
      ],
      "stateMutability": "view",
      "type": "function"
    },
    {
      "inputs": [],
      "name": "ownerControlsEnabled",
      "outputs": [
        {
          "internalType": "bool",
          "name": "",
          "type": "bool"
        }
      ],
      "stateMutability": "view",
      "type": "function"
    },
    {
      "inputs": [],
      "name": "revokeMetadataUpdates",
      "outputs": [],
      "stateMutability": "nonpayable",
      "type": "function"
    },
    {
      "inputs": [],
      "name": "revokeMinting",
      "outputs": [],
      "stateMutability": "nonpayable",
      "type": "function"
    },
    {
      "inputs": [],
      "name": "revokeOwnerControls",
      "outputs": [],
      "stateMutability": "nonpayable",
      "type": "function"
    },
    {
      "inputs": [],
      "name": "symbol",
      "outputs": [
        {
          "internalType": "string",
          "name": "",
          "type": "string"
        }
      ],
      "stateMutability": "view",
      "type": "function"
    },
    {
      "inputs": [],
      "name": "totalSupply",
      "outputs": [
        {
          "internalType": "uint256",
          "name": "",
          "type": "uint256"
        }
      ],
      "stateMutability": "view",
      "type": "function"
    },
    {
      "inputs": [
        {
          "internalType": "address",
          "name": "to",
          "type": "address"
        },
        {
          "internalType": "uint256",
          "name": "value",
          "type": "uint256"
        }
      ],
      "name": "transfer",
      "outputs": [
        {
          "internalType": "bool",
          "name": "",
          "type": "bool"
        }
      ],
      "stateMutability": "nonpayable",
      "type": "function"
    },
    {
      "inputs": [
        {
          "internalType": "address",
          "name": "from",
          "type": "address"
        },
        {
          "internalType": "address",
          "name": "to",
          "type": "address"
        },
        {
          "internalType": "uint256",
          "name": "value",
          "type": "uint256"
        }
      ],
      "name": "transferFrom",
      "outputs": [
        {
          "internalType": "bool",
          "name": "",
          "type": "bool"
        }
      ],
      "stateMutability": "nonpayable",
      "type": "function"
    },
    {
      "inputs": [
        {
          "internalType": "string",
          "name": "newName",
          "type": "string"
        }
      ],
      "name": "updateName",
      "outputs": [],
      "stateMutability": "nonpayable",
      "type": "function"
    },
    {
      "inputs": [
        {
          "internalType": "string",
          "name": "newSymbol",
          "type": "string"
        }
      ],
      "name": "updateSymbol",
      "outputs": [],
      "stateMutability": "nonpayable",
      "type": "function"
    }
  ],
  "bytecode": "0x60806040523480156200001157600080fd5b506040516200150c3803806200150c8339810160408190526200003491620001f7565b600062000042888262000353565b50600162000051878262000353565b50620000606012600a62000534565b6200006c90866200054c565b6002819055600380546001600160a01b0319166001600160a01b03871690811782556000818152600460209081526040808320869055845461ffff60a01b1916600160a01b8a15150260ff60a81b191617600160a81b891515021760ff60b01b1916600160b01b88151502179094559251938452909290917fddf252ad1be2c89b69c2b068fc378daa952ba7f163c4a11628f55a4df523b3ef910160405180910390a35050505050505062000566565b634e487b7160e01b600052604160045260246000fd5b600082601f8301126200014457600080fd5b81516001600160401b03808211156200016157620001616200011c565b604051601f8301601f19908116603f011681019082821181831017156200018c576200018c6200011c565b81604052838152602092508683858801011115620001a957600080fd5b600091505b83821015620001cd5785820183015181830184015290820190620001ae565b600093810190920192909252949350505050565b80518015158114620001f257600080fd5b919050565b600080600080600080600060e0888a0312156200021357600080fd5b87516001600160401b03808211156200022b57600080fd5b620002398b838c0162000132565b985060208a01519150808211156200025057600080fd5b506200025f8a828b0162000132565b60408a015160608b0151919850965090506001600160a01b03811681146200028657600080fd5b93506200029660808901620001e1565b9250620002a660a08901620001e1565b9150620002b660c08901620001e1565b905092959891949750929550565b600181811c90821680620002d957607f821691505b602082108103620002fa57634e487b7160e01b600052602260045260246000fd5b50919050565b601f8211156200034e57600081815260208120601f850160051c81016020861015620003295750805b601f850160051c820191505b818110156200034a5782815560010162000335565b5050505b505050565b81516001600160401b038111156200036f576200036f6200011c565b6200038781620003808454620002c4565b8462000300565b602080601f831160018114620003bf5760008415620003a65750858301515b600019600386901b1c1916600185901b1785556200034a565b600085815260208120601f198616915b82811015620003f057888601518255948401946001909101908401620003cf565b50858210156200040f5787850151600019600388901b60f8161c191681555b5050505050600190811b01905550565b634e487b7160e01b600052601160045260246000fd5b600181815b80851115620004765781600019048211156200045a576200045a6200041f565b808516156200046857918102915b93841c93908002906200043a565b509250929050565b6000826200048f575060016200052e565b816200049e575060006200052e565b8160018114620004b75760028114620004c257620004e2565b60019150506200052e565b60ff841115620004d657620004d66200041f565b50506001821b6200052e565b5060208310610133831016604e8410600b841016171562000507575081810a6200052e565b62000513838362000435565b80600019048211156200052a576200052a6200041f565b0290505b92915050565b60006200054560ff8416836200047e565b9392505050565b80820281158282048414176200052e576200052e6200041f565b610f9680620005766000396000f3fe608060405234801561001057600080fd5b50600436106101425760003560e01c806370a08231116100b857806395d89b411161007c57806395d89b41146102b357806399b3517f146102bb5780639fd6db12146102c3578063a9059cbb146102d7578063dd62ed3e146102ea578063eb7091731461031557600080fd5b806370a082311461022e57806374bead0c1461024e57806380ab85df1461026157806384da92a7146102755780638da5cb5b1461028857600080fd5b8063313ce5671161010a578063313ce567146101bd57806340c10f19146101d75780634eed5c3f146101ec5780635120262c146101ff578063537f5312146102075780636fe4e7861461021a57600080fd5b80630599eff41461014757806306fdde031461016b578063095ea7b31461018057806318160ddd1461019357806323b872dd146101aa575b600080fd5b600354600160b01b900460ff16155b60405190151581526020015b60405180910390f35b61017361031d565b6040516101629190610a5f565b61015661018e366004610ac9565b6103ab565b61019c60025481565b604051908152602001610162565b6101566101b8366004610af3565b610418565b6101c5601281565b60405160ff9091168152602001610162565b6101ea6101e5366004610ac9565b6105d3565b005b600354600160a81b900460ff1615610156565b6101ea61071d565b6101ea610215366004610b45565b610794565b60035461015690600160a81b900460ff1681565b61019c61023c366004610bf6565b60046020526000908152604090205481565b600354600160a01b900460ff1615610156565b60035461015690600160b01b900460ff1681565b6101ea610283366004610b45565b61080c565b60035461029b906001600160a01b031681565b6040516001600160a01b039091168152602001610162565b610173610880565b6101ea61088d565b60035461015690600160a01b900460ff1681565b6101566102e5366004610ac9565b610904565b61019c6102f8366004610c18565b600560209081526000928352604080842090915290825290205481565b6101ea6109e8565b6000805461032a90610c4b565b80601f016020809104026020016040519081016040528092919081815260200182805461035690610c4b565b80156103a35780601f10610378576101008083540402835291602001916103a3565b820191906000526020600020905b81548152906001019060200180831161038657829003601f168201915b505050505081565b3360008181526005602090815260408083206001600160a01b038716808552925280832085905551919290917f8c5be1e5ebec7d5bd14f71427d1e84f3dd0314c0f7b2291e5b200ac8c7c3b925906104069086815260200190565b60405180910390a35060015b92915050565b6001600160a01b03831660009081526004602052604081205482111561047c5760405162461bcd60e51b8152602060048201526014602482015273496e73756666696369656e742062616c616e636560601b60448201526064015b60405180910390fd5b6001600160a01b03841660009081526005602090815260408083203384529091529020548211156104e85760405162461bcd60e51b8152602060048201526016602482015275496e73756666696369656e7420616c6c6f77616e636560501b6044820152606401610473565b6001600160a01b03841660009081526004602052604081208054849290610510908490610c9b565b90915550506001600160a01b0383166000908152600460205260408120805484929061053d908490610cae565b90915550506001600160a01b038416600090815260056020908152604080832033845290915281208054849290610575908490610c9b565b92505081905550826001600160a01b0316846001600160a01b03167fddf252ad1be2c89b69c2b068fc378daa952ba7f163c4a11628f55a4df523b3ef846040516105c191815260200190565b60405180910390a35060019392505050565b6003546001600160a01b0316331480156105f65750600354600160b01b900460ff165b6106125760405162461bcd60e51b815260040161047390610cc1565b600354600160a01b900460ff166106795760405162461bcd60e51b815260206004820152602560248201527f4d696e74696e6720686173206265656e207065726d616e656e746c792064697360448201526418589b195960da1b6064820152608401610473565b60006106876012600a610ddc565b6106919083610deb565b905080600260008282546106a59190610cae565b90915550506001600160a01b038316600090815260046020526040812080548392906106d2908490610cae565b90915550506040518181526001600160a01b038416906000907fddf252ad1be2c89b69c2b068fc378daa952ba7f163c4a11628f55a4df523b3ef9060200160405180910390a3505050565b6003546001600160a01b0316331480156107405750600354600160b01b900460ff165b61075c5760405162461bcd60e51b815260040161047390610cc1565b6003805460ff60b01b191690556040517f5d9422a59f66f10d8fa85a52f3e244fc341ac2bb78112b3bc700a7bf2700dc7a90600090a1565b6003546001600160a01b0316331480156107b75750600354600160b01b900460ff165b6107d35760405162461bcd60e51b815260040161047390610cc1565b600354600160a81b900460ff166107fc5760405162461bcd60e51b815260040161047390610e02565b60016108088282610ea0565b5050565b6003546001600160a01b03163314801561082f5750600354600160b01b900460ff165b61084b5760405162461bcd60e51b815260040161047390610cc1565b600354600160a81b900460ff166108745760405162461bcd60e51b815260040161047390610e02565b60006108088282610ea0565b6001805461032a90610c4b565b6003546001600160a01b0316331480156108b05750600354600160b01b900460ff165b6108cc5760405162461bcd60e51b815260040161047390610cc1565b6003805460ff60a01b191690556040517f5636e39851395b82c1d98af09d129828f18da355ebc1d8030f8839467367132c90600090a1565b3360009081526004602052604081205482111561095a5760405162461bcd60e51b8152602060048201526014602482015273496e73756666696369656e742062616c616e636560601b6044820152606401610473565b3360009081526004602052604081208054849290610979908490610c9b565b90915550506001600160a01b038316600090815260046020526040812080548492906109a6908490610cae565b90915550506040518281526001600160a01b0384169033907fddf252ad1be2c89b69c2b068fc378daa952ba7f163c4a11628f55a4df523b3ef90602001610406565b6003546001600160a01b031633148015610a0b5750600354600160b01b900460ff165b610a275760405162461bcd60e51b815260040161047390610cc1565b6003805460ff60a81b191690556040517f6dc8e666aae4d8e58fca654e40a416a93e283a9841686f9e39de13c88cdedc9190600090a1565b600060208083528351808285015260005b81811015610a8c57858101830151858201604001528201610a70565b506000604082860101526040601f19601f8301168501019250505092915050565b80356001600160a01b0381168114610ac457600080fd5b919050565b60008060408385031215610adc57600080fd5b610ae583610aad565b946020939093013593505050565b600080600060608486031215610b0857600080fd5b610b1184610aad565b9250610b1f60208501610aad565b9150604084013590509250925092565b634e487b7160e01b600052604160045260246000fd5b600060208284031215610b5757600080fd5b813567ffffffffffffffff80821115610b6f57600080fd5b818401915084601f830112610b8357600080fd5b813581811115610b9557610b95610b2f565b604051601f8201601f19908116603f01168101908382118183101715610bbd57610bbd610b2f565b81604052828152876020848701011115610bd657600080fd5b826020860160208301376000928101602001929092525095945050505050565b600060208284031215610c0857600080fd5b610c1182610aad565b9392505050565b60008060408385031215610c2b57600080fd5b610c3483610aad565b9150610c4260208401610aad565b90509250929050565b600181811c90821680610c5f57607f821691505b602082108103610c7f57634e487b7160e01b600052602260045260246000fd5b50919050565b634e487b7160e01b600052601160045260246000fd5b8181038181111561041257610412610c85565b8082018082111561041257610412610c85565b6020808252601d908201527f4e6f74206f776e6572206f7220636f6e74726f6c73207265766f6b6564000000604082015260600190565b600181815b80851115610d33578160001904821115610d1957610d19610c85565b80851615610d2657918102915b93841c9390800290610cfd565b509250929050565b600082610d4a57506001610412565b81610d5757506000610412565b8160018114610d6d5760028114610d7757610d93565b6001915050610412565b60ff841115610d8857610d88610c85565b50506001821b610412565b5060208310610133831016604e8410600b8410161715610db6575081810a610412565b610dc08383610cf8565b8060001904821115610dd457610dd4610c85565b029392505050565b6000610c1160ff841683610d3b565b808202811582820484141761041257610412610c85565b6020808252602f908201527f4d6574616461746120757064617465732068617665206265656e207065726d6160408201526e1b995b9d1b1e48191a5cd8589b1959608a1b606082015260800190565b601f821115610e9b57600081815260208120601f850160051c81016020861015610e785750805b601f850160051c820191505b81811015610e9757828155600101610e84565b5050505b505050565b815167ffffffffffffffff811115610eba57610eba610b2f565b610ece81610ec88454610c4b565b84610e51565b602080601f831160018114610f035760008415610eeb5750858301515b600019600386901b1c1916600185901b178555610e97565b600085815260208120601f198616915b82811015610f3257888601518255948401946001909101908401610f13565b5085821015610f505787850151600019600388901b60f8161c191681555b5050505050600190811b0190555056fea2646970667358221220b244031569b003ed777a47c24ecef49306809f3bedfb934cafce008d5c35d7dc64736f6c63430008140033",
  "linkReferences": {},
  "deployedLinkReferences": {}
}